:1000000000000420BD020000E5020000E70200003D
:10001000E9020000EB020000ED0200000000000019
:10002000000000000000000000000000EF020000DF
:10003000F102000000000000F3020000F5020000E1
:10004000F7020000F7020000A90800009D19000057
:10005000F7020000F7020000F7020000F7020000BC
:10006000F7020000F7020000F7020000F7020000AC
:10007000F7020000F7020000F7020000F70200009C
:10008000F7020000F7020000F7020000F70200008C
:10009000F7020000F7020000F7020000F70200007C
:1000A000F7020000F7020000F7020000F70200006C
:1000B000F7020000F702000000000000000000004E
:1000C000F7020000F7020000F7020000F70200004C
:1000D000F7020000F7020000F7020000F70200003C
:1000E000F7020000F7020000F70200000000000025
:1000F00000000000F702000000000000F70200000E
:1001000000000000000000000000000000000000EF
:1001100000000000000000000000000000000000DF
:1001200000000000000000000000000000000000CF
:1001300000000000000000000000000000000000BF
:1001400000000000000000000000000000000000AF
:10015000000000000000000000000000000000009F
:10016000000000000000000000000000000000008F
:10017000000000000000000000000000000000007F
:10018000000000000000000000000000000000006F
:10019000000000000000000000000000000000005F
:1001A000000000000000000000000000000000004F
:1001B000000000000000000000000000000000003F
:1001C000000000000000000000000000000000002F
:1001D000000000000000000000000000000000001F
:1001E000000000000000000000000000000000000F
:1001F00000000000000000000000000000000000FF
:1002000010B5054C237833B9044B13B10448AFF350
:1002100000800123237010BD880000200000000032
:100220005440000008B5034B1BB103490348AFF32A
:10023000008008BD000000008C0000205440000039
:10024000A3F5803A704700BF174B002B08BF134B34
:100250009D46FFF7F5FF00218B460F461348144AD1
:10026000121A02F049FB0E4B002B00D098470D4BA1
:10027000002B00D098470020002104000D000D48FD
:10028000002802D00C48AFF3008002F003FB2000EE
:10029000290001F0EFFF02F0E9FA00BF00000800BA
:1002A0000000000000000000000004208800002082
:1002B000AC03002000000000000000000649074ACF
:1002C000074B9B1A03DD043BC858D050FBDC01F000
:1002D000CDFDFFF7B9FF00006040000000000020E6
:1002E00088000020FEE7FEE7FEE7FEE7FEE7FEE708
:1002F000FEE7FEE7FEE7FEE74FF0A04310B44FF441
:1003000080404FF400544FF400414FF48032C3F862
:100310000845C3F80805C3F80815C3F808255DF8B3
:10032000044B70474FF0A04310B44FF480404FF49B
:1003300000544FF400414FF48032C3F80C45C3F829
:100340000C05C3F80C15C3F80C255DF8044B704779
:10035000C20730B40ED483070AD54FF0A0430C2255
:10036000C3F82C27C3F83027C3F86027C3F86427E5
:1003700030BC70474FF0A0430322C3F834274FF43A
:100380000055C3F838274FF48044C3F83C274FF496
:100390000041C3F840274FF48032C3F80855C3F832
:1003A0000845C3F80815C3F80825D4E700B585B09B
:1003B0000346002101AA44F20100CDE90111039393
:1003C00000F004F805B05DF804FB00BF72B6094BFD
:1003D0001B68DB0700D500BEBFF34F8F0649074BF4
:1003E000CA6802F4E0621343CB60BFF34F8F00BFD3
:1003F000FDE700BFF0ED00E000ED00E00400FA05CD
:1004000059B142B1531E1A4005D182600160838008
:10041000C26010467047092070470E20704700BF29
:1004200010B48468C26803468088121B904203D2CD
:1004300004205DF8044B7047DA681C680240002015
:10044000A154DA680132DA605DF8044B704700BFEE
:1004500003468068DA6890420DD010B498689A8894
:100460001C6802400020A25C0A709A6801329A60FF
:100470005DF8044B70470520704700BF30B5047825
:10048000012C83B004D0022C2DD0ECB103B030BDD0
:10049000037A002B3CD04368364D19782846FFF785
:1004A000BFFF002854D0344B01901B688DF80040EA
:1004B00068469847A968EB68AA885B1A9A4227D2CF
:1004C0002E4B01221A70E1E72D492E48FFF7C0FF9D
:1004D00000282ED0284B03221B688DF80020684688
:1004E000984703B030BD284B284D1A78C168AA5CE4
:1004F00001918DF80040B2B9254903F10C000122A9
:1005000000F044FC1C4B68461B68984703B030BDA4
:100510001D4B1E4A1B781E49D35C0122A3B11D4806
:1005200000F008FFB2E71A49181D012200F002FF8F
:10053000E8E71548154A0378D35CA3B110490122B6
:10054000043000F08FFEA1E7134800F01FFC9DE788
:10055000AA68EB689A42ADD0074B8DF800001B6883
:1005600068469847A6E7064901220C3000F09AFB3E
:100570008CE700BFA8000020A4000020B8000020E5
:10058000D0000020BC000020000000209C030020C0
:10059000CC000020040000200C0000202DE9F041D8
:1005A000334D8AB02A60002956D08A8880460D468D
:1005B000304809681C46FFF723FF10B10AB0BDE8B8
:1005C000F081AA89A9682C48FFF71AFF0028F5D105
:1005D0002A4E98F810C02A4F0FCE02AD0FC596E8EC
:1005E0000F0098F81160BCF1000C85E80F0018BFEF
:1005F0004FF0010CD8F804300193002ED8F81430D5
:10060000D8F808508DF8244014BF0E220022D8F8E4
:100610000C40D8F800608DF81D200893194A019B02
:100620008DF81CC002A93846CDE904450396029313
:1006300000F0F6F80028C1D1D8F80030124A013392
:100640001070BBD0114A3B78D35C4BB11049381DB8
:10065000012200F06FFEB1E707200AB0BDE8F0818B
:100660000B4907F10C00012200F090FBA6E700BF48
:10067000A4000020A8000020BC000020D838000002
:10068000000000207D040000B80000209C03002032
:10069000CC00002070B5114D014611482E78FFF7AF
:1006A000D7FE04460EB9204670BD0E480E4A0378A8
:1006B000D35C00222A7053B10C490430012200F0AF
:1006C00039FE0028EFD0FFF771FE204670BD0749C4
:1006D00001220C3000F05AFBF3E700BFB800002005
:1006E000A8000020000000209C030020CC00002077
:1006F00070B501461548FFF793FE044608B1204641
:1007000070BD134D134E2B78F35CA3B1281D00F080
:1007100003FE0028F3D110490C48FFF799FE00288A
:10072000EDD12B780C49F35C01224BB1BDE8704050
:100730000A4800F097BD05F10C0000F01BFBE8E74C
:10074000BDE87040064800F0ADBA00BFBC00002014
:10075000000000209C030020D000002004000020A6
:100760000C00002072B6024A136801331360704710
:10077000D4000020034A1368013B136003B962B63A
:10078000704700BFD400002070B5161E07DD0C4670
:100790008D1914F8010BFFF7ABFFA542F9D13046D4
:1007A00070BD00BF10B50C462046FFF773FF05284B
:1007B000FAD0012010BD00BF30B585B0047845687F
:1007C0008DF80040D0E90240064A074B039053F8E9
:1007D0002130019552F821108DF80840684698475D
:1007E00005B030BDD8000020E000002030B585B055
:1007F000047845688DF80040D0E90240064A074B6E
:10080000039053F82130019552F821108DF80840DB
:100810006846984705B030BDD8000020E0000020B1
:100820002DE9F047DFF8748090F800E04B7F08F87E
:100830000E300D46074616460FCD88B06C460FC4E5
:1008400095E80F003D78DFF85890DFF858C018F8A9
:10085000055049F82E6084E80F004CF82E00CDF8C2
:1008600010E05DB1002E0B4A694607F1040008BF95
:10087000324600F0E3FB08B0BDE8F087002E064AE0
:10088000694607F10C0008BF324600F013F908B0C2
:10089000BDE8F087B9070000ED0700009C030020C9
:1008A000E0000020D8000020014B1B68184700BF63
:1008B000E800002038B50C4B984213D100200D46BB
:1008C000FFF750FF094B1C7924B10020FFF752FFBE
:1008D000112038BD012220461D601A71FFF74AFF22
:1008E000204638BD002038BD00200040E800002030
:1008F00030B56E4AD2F8043399058BB068D5D2F87A
:100900002431002B64D00023C2F82431D2F82431E2
:1009100001934FF40171664B0198C2F8081393F8E4
:10092000291009B901215160604902228DF818206F
:10093000D1F88024C1F880249869D96809920024EC
:100940000025CDE90710C3E90645D3E9001206A842
:100950009047564AD2F81C31C3B1554B5869196AB1
:1009600088426AD993F8281001F0FF00002964D169
:10097000C2F81C01D2F81C11039103999C68186AF3
:10098000196A205C01311962C2F81C05474AD2F885
:100990004431DBB10021464BC2F84411D2F8440186
:1009A00093F829100090009809B1012111609A690B
:1009B00062B1586AD96800229A610122CDE9071014
:1009C0008DF8182006A8D3E9001290470BB030BD6F
:1009D000364AD2F804335B07BBD5D2F80831002B76
:1009E000B7D0334B996900293ED00021C2F80811D5
:1009F000D2F8081104910499D868596AD2F81825D8
:100A000042545A6A996901325A625A6A8A42A0D19A
:100A1000DA69002A31D0DD685C6A18699A610121BF
:100A20000022D860DA615A628DF81810CDE90754B7
:100A3000D3E9001206A890478BE71C4A0021C2F8B0
:100A40001C11D2F81C210292029A5A69002A9DD0E8
:100A500058699A688DF8181008905961079206A88D
:100A6000D3E90012904791E7C2F80811D2F80801C3
:100A700005900598D2F81825C7E793F8292012B9F0
:100A80000A4A01215160094A4FF40171C2F8081362
:100A9000596ADA6808910024012007928DF818003D
:100AA000D3E900129C6106A8904752E7002000405D
:100AB000F00000202DE9F041DFF8E48106792C23D5
:100AC00003FB068382B093F82A30002B40F09E800F
:100AD00005460C4600686D491746FFF7EBFE0028F7
:100AE00040F090802368591C19D01F2B4FF0010251
:100AF0008ABF67494FF0A04103F01F0302FA03F3D6
:100B0000C1F8083523681F2B86BF03F01F03604A16
:100B10004FF0A04203F5E073032142F8231063680D
:100B20005A1C0BD01F2B86BF03F01F03584A4FF0EF
:100B3000A04203F5E073002142F823102B68A2695C
:100B4000C3F82425217D637D2A680B43C2F86C35E8
:100B5000D4E900122B68C3F81425C3F80C15237DC3
:100B6000012B5FD02C2303FB06F308EB0302576035
:100B7000226948F803202A6897B30021237FC2F82E
:100B80001C11D2F81C2100922A68009FC2F844115F
:100B9000D2F844112A6801913E4C0199C2F80443ED
:100BA0002A6842F3073100294FEA123232DB01F1A1
:100BB000604101F561415B01DBB281F800332A68D5
:100BC00042F30733002B4FEA123109DB324C01228A
:100BD0005B0901F01F0102FA01F144F823102A68B1
:100BE0002C2303FB0686012400230421C2F80015F0
:100BF000C6E9063386F82A4086F82930736102B0C8
:100C0000BDE8F081112002B0BDE8F081082002B0FB
:100C1000BDE8F081214902F00F025B011144DBB213
:100C20000B76CCE7A368591C0BD01F2B86BF03F0B3
:100C30001F0317494FF0A04103F5E073002241F86C
:100C40002320E3685A1C1AD01F2B8ABF10494FF08B
:100C5000A04103F01F03012202FA03F3C1F8083593
:100C6000E3681F2B88BF03F01F0303F5E0738CBFFD
:100C700007494FF0A041032241F82320E3682A6886
:100C8000A168C2F80835C2F810156BE7F10800003A
:100C9000000300508000020000E100E0FCEC00E0F6
:100CA000F00000202DE9F041314E05792C2303FBA3
:100CB00005630446586984B000284CD15A61996094
:100CC000186283F828002268C2F81C01D2F81C11AF
:100CD000226802910121029F91602268D3F808C026
:100CE000C2F81C01D2F81C11019101991F6A196AFE
:100CF0001CF8077001311962C2F81C755A6812B1EC
:100D000004B0BDE8F0815F691A6A216897421BD977
:100D1000864602E093F828200ABBD1F81C21002A5D
:100D2000F8D0C1F81CE1D1F81C210392039AD3F842
:100D300020801A6A1CF8088001321A62C1F81C85EA
:100D40001A6A9742E9D82168D1F81C31002BFBD0F0
:100D50000123CB6004E0112004B0BDE8F0810F2036
:100D60002C2303FB056500236B6104B0BDE8F08113
:100D7000F00000200379044A2C2101FB0323586969
:100D8000003818BF01207047F0000020F0B4504F29
:100D900006792C2303FB067386B05D68044625B1F3
:100DA00003684FF40170C3F808032C2303FB067398
:100DB000986990B1D86900287CD11961DA612C2337
:100DC00003FB06735A683AB323684FF40172C3F801
:100DD0000423002006B0F0BC704793F829509A61B4
:100DE000D9605862D861002DE9D12368C3F8245135
:100DF000D3F8242123680192019AC3F80851D3F84B
:100E0000082123680292012202991A602C2303FB15
:100E100006735A68002AD7D12168C1F84421D1F855
:100E200044210392039A2268D2F82411D2F808517F
:100E3000D2F8440155B9002833D10029F4D02C232D
:100E400003FB06760023B3610320C3E70029F6D134
:100E500048BB9969C2F8080181B1D2F80811049120
:100E60000499DD68596AD2F818256A545A6A996952
:100E700001325A625A6A9142D5D806E0D2F8081176
:100E800005910599D2F818255B6A2C2303FB067699
:100E9000002296F82930B261A3B1236801221A60BA
:100EA00098E70029CBD12C2303FB06760023B361FE
:100EB0000F208FE755B123684FF40172C3F8042364
:100EC000112087E7236801225A6083E7112081E718
:100ED000F000002030B5574BD3F824218BB0002A06
:100EE00075D00022C3F82421D3F8242104920222D1
:100EF0008DF81820049AD3F880144F4AC3F8801450
:100F00000991D3F83C15D368089100240025079374
:100F1000C2E906451168536806A89847454BD3F8BF
:100F2000442152B10021444AC3F84411D3F844018A
:100F3000916903900398002938D13E4BD3F82021C2
:100F40005AB10021C3F82011D3F8202102920120C8
:100F5000394A029CD8605069D8B9364BD3F8582129
:100F6000AAB10021C3F85811D3F85801324A0190B0
:100F70000198506958B1D3F84C05936808908DF8E2
:100F800018105161079306A8D2E9001398470BB0D7
:100F900030BDD3F84C05936808908DF81810516156
:100FA000079306A8D2E900139847D6E7D3F83C3553
:100FB000D168089300240025012307918DF818308B
:100FC000C2E90645D2E9001306A89847B5E7D3F869
:100FD00010110029A2D0C3F81021D3F8101116481F
:100FE000059105998469D3F83C15A14296D1C4694D
:100FF000A4B1D3F80052846125F02005C3F8005253
:10100000D0E90343C26101220891C36001684368CB
:1010100007948DF8182006A898477FE7C268846176
:101020000123CDE907218DF81830D0E9001306A877
:10103000984773E700200040200100202DE9F0438D
:101040000779824E07EBC70306EB830387B093F85B
:101050002030002B40F0B98004460D4600687C49E2
:101060009046FFF727FC002840F0AB802B68591C06
:101070004FEAC70919D01F2B4FF001028ABF7549EB
:101080004FF0A04103F01F0302FA03F3C1F8083543
:101090002B681F2B86BF03F01F036E4A4FF0A04240
:1010A00003F5E073032142F823106B685A1C0BD040
:1010B0001F2B86BF03F01F03664A4FF0A04203F5C3
:1010C000E073002142F823102368AA69C3F824259D
:1010D000297D6A7D23680A43C3F86C25D5E9003170
:1010E0002268C2F80C35C2F814152B7D012B78D07C
:1010F00009EB070206EB8203C3F804802B6946F86C
:101100002230B8F1000F4BD021682B7F524D0022C6
:10111000C1F81021D1F8101101912168DDF804C047
:10112000C1F82021D1F8201102912168DDF808C012
:10113000C1F82421D1F8241103912168DDF80CC0F5
:10114000C1F84421D1F8441104912168DDF810C0A0
:10115000C1F85821D1F85811226805910599C2F8B3
:101160000453226842F3073100294FEA123230DB80
:1011700001F1604101F561415B01DBB281F80033AF
:10118000226842F30733002B4FEA123109DB334D5B
:1011900001225B0901F01F0102FA01F145F8231059
:1011A00022684F4406EB8706002301240821C2F879
:1011B0000015C6E9063386F82040736107B0BDE824
:1011C000F083112007B0BDE8F083082007B0BDE828
:1011D000F083234902F00F025B011144DBB20B766E
:1011E000CEE7AB68591C0BD01F2B86BF03F01F0343
:1011F00018494FF0A04103F5E073002241F8232085
:10120000EB685A1C1AD01F2B8ABF12494FF0A0411D
:1012100003F01F03012202FA03F3C1F80835EB685B
:101220001F2B88BF03F01F0303F5E0738CBF094930
:101230004FF0A041032241F82320EB682268A968FF
:10124000C2F80835C2F8101552E700BF200100208F
:10125000D50E0000000300501003420000E100E042
:10126000FCEC00E0F0B401F06044B4F1005F82B047
:101270002CD10579274E05EBC50406EB8404034603
:101280006069EF0000283ED16261A1601A68C2F86F
:101290002001D2F820C11A68CDF804C0DDF804C0DE
:1012A000C2F85801D2F8582100921A68DDF800C03F
:1012B000D4F814C0C2F84415C2F848C51A68012110
:1012C0009160626832B102B0F0BC7047102002B089
:1012D000F0BC70471A6800E0C8B9D2F82011D2F803
:1012E00058010029F8D090B90121D1601B68D3F8CA
:1012F0005821002AFBD07B1906EB830300225A6198
:1013000002B0F0BC7047112002B0F0BC70470F2053
:10131000F1E700BF200100200379054A03EBC30376
:1013200002EB83035869003818BF0120704700BFE3
:101330002001002001F06043B3F1005F5ED1F0B402
:101340000479474D04EBC40605EB860682B0766847
:10135000E30026B107684FF4047CC7F808C32344B0
:1013600005EB83039C694CBB9A61DC61D96003681F
:10137000C3F81041D3F8106103680196019EC3F8C9
:101380004441D3F8444103680094009CC3F83415E9
:10139000C3F83825036801221A60047904EBC403FA
:1013A00005EB8303E6005B6853B303684FF40472F4
:1013B000C3F80423002002B0F0BC7047DC69002CA5
:1013C00037D11961DA610368C3F81041D3F81061AD
:1013D00003680196019EC3F84441D3F84441036871
:1013E0000094009CC3F83415C3F838250268D2F87D
:1013F000003243F02003C2F80032CEE710207047DD
:10140000036801E0E9B910BBD3F81021D3F8441107
:10141000D3F82401002AF5D0344400284FF000030B
:1014200005EB840518BF0320994218BF0F20AB615C
:10143000C1E796B103684FF40472C3F80423112086
:10144000B9E7344405EB84050F20AA61B3E73444BF
:1014500005EB84050320A961ADE71120ABE700BFD0
:1014600020010020F0B58FB0A94B00930023C0F8F5
:101470000431D0F804210492049AC0F82431D0F841
:1014800024210392039AC0F81C31D0F81C21029247
:10149000029AC0F80831D0F8082101920122019C7B
:1014A000C0F800324B6381F82F30026291F82D3082
:1014B000934218BF82604B6B8A6A93420FD24A6A8A
:1014C000D35CC0F81C350A68E2B140F286238B6019
:1014D0008B68C0F80433002318460FB0F0BD91F8B4
:1014E0002C30002B40F0C2800B6A13F0400F4FF0FD
:1014F000010314BFC36143610A6818BF81F82D302E
:10150000002AE2D1009B002B28DD01264FF0020EBD
:10151000D0F8043133B1C0F80421D0F804310D9370
:101520000D9B012391F82F4034B3C0F82421D0F84B
:1015300024410A940A9CC0F81C21D0F81C410B9449
:101540000B9CC0F80821D0F808410C940C9C0BBBF4
:10155000009B013B0093009B002BD9DC91F82F30BE
:10156000F3B9009A002AB7DC00230522C0F8003541
:101570000323C0F80025AFE7D0F8245155B3C0F8D5
:101580002441D0F824410994099C466181F82F60D8
:10159000002BDDD091F82F30002281F82D20ABB345
:1015A000D0F8C424C0F8C424002A41D012F0010F9E
:1015B00018BF4FF4024348F2012108BF032312F081
:1015C000020F18BF0B4648F2022112F0040F18BF99
:1015D0000B46C6E7D0F81C418CB3C0F81C51D0F8BC
:1015E0001C4108944C6BDDF820C001344C63D0F8EA
:1015F00024C1BCF1000F3CD0C0F82451D0F82441E4
:101600000794079C466181F82F60A0E74C6B8A6ABB
:101610009442A6D001220524C0F80035C0F8004548
:1016200081F82F20D0F8C424C0F8C424002ABDD1EA
:10163000009A002A4FF003033FF74EAF94E7D0F82B
:101640000851002D83D0C0F80841D0F80851069504
:10165000069DD0F82451A5B1C0F82441D0F824410A
:101660000594059C466181F82F6070E70123C361F2
:1016700029E78D6AAC421AD24D6A2C5DC0F81C4530
:1016800065E74C6B8D6AAC42BFF461AF4F6AD0F82E
:1016900018553D554C6BD1F828C001340CF1FF357D
:1016A000AC424C631DD0644521D006624FE791F8EF
:1016B0002C4024B90C6A670609D4466147E7012328
:1016C000C36191F82F30002B3FF44BAF68E7012244
:1016D000C26191F82F3081F82D20002B3FF441AFEB
:1016E0005EE70D6A6D060FD4C0F800E2DDE70C6A14
:1016F00064067FF52CAF022381F82D3091F82F304E
:10170000002B3FF42EAF4BE76445CED1F3E700BF8B
:10171000A0860100F0B58FB09F4B00930023C0F866
:101720000431D0F804210492049AC0F82431D0F88E
:1017300024210392039AC0F81C31D0F81C21029294
:10174000029AC0F808318A6AD0F808410194012A47
:10175000019C4B6381F82F3015D00123C0F8003273
:101760000123036291F82D20022A18BF03600A6842
:1017700082B140F286238B608B68C0F8043300236B
:1017800018460FB0F0BD0B6A5B06E6D40223C0F822
:101790000032E5E7009B002B28DD01264FF0020E0A
:1017A000D0F8043133B1C0F80421D0F804310D93DE
:1017B0000D9B012391F82F4034B3C0F82421D0F8B9
:1017C00024410A940A9CC0F81C21D0F81C410B94B7
:1017D0000B9CC0F80821D0F808410C940C9C0BBB62
:1017E000009B013B0093009B002BD9DC91F82F302C
:1017F000F3B9009A002AC3DC00230522C0F80035A3
:101800000323C0F80025BBE7D0F8245155B3C0F836
:101810002441D0F824410994099C466181F82F6045
:10182000002BDDD091F82F30002281F82D20ABB3B2
:10183000D0F8C424C0F8C424002A41D012F0010F0B
:1018400018BF4FF4024348F2012108BF032312F0EE
:10185000020F18BF0B4648F2022112F0040F18BF06
:101860000B46C6E7D0F81C418CB3C0F81C51D0F829
:101870001C4108944C6BDDF820C001344C63D0F857
:1018800024C1BCF1000F39D0C0F82451D0F8244154
:101890000794079C466181F82F60A0E74C6B8A6A29
:1018A0009442A6D001220524C0F80035C0F80045B6
:1018B00081F82F20D0F8C424C0F8C424002ABDD158
:1018C000009A002A4FF003033FF75AAF94E7D0F88D
:1018D0000851002D83D0C0F80841D0F80851069572
:1018E000069DD0F824518DB1C0F82441D0F8244190
:1018F0000594059C466181F82F6070E78D6AAC42C3
:101900001AD24D6A2C5DC0F81C4568E74C6B8D6A95
:10191000AC42BFF464AF4F6AD0F818553D554C6BDC
:10192000D1F828C001340CF1FF35AC424C631DD016
:10193000644521D0066252E791F82C4024B90C6A24
:10194000670609D446614AE70123C36191F82F3045
:10195000002B3FF44EAF6BE70122C26191F82F30AC
:1019600081F82D20002B3FF444AF61E70D6A6D062E
:101970000FD4C0F800E2DDE70C6A64067FF52FAFF4
:10198000022381F82D3091F82F30002B3FF431AF36
:101990004EE76445CED1F3E7A0860100F0B58C4B4D
:1019A000D3F8042191B03AB10022C3F80421D3F84E
:1019B00004310993099B0122864C854B94F82F1022
:1019C000A9B10021C3F82411D3F824010690069888
:1019D000C3F81C11D3F81C0107900798C3F808112D
:1019E000D3F808310893089B8AB911B0F0BDD3F839
:1019F0002401002839D0C3F82411D3F8241105910B
:101A00000121059884F82F105961002AEDD094F82F
:101A10002F30002284F82D2063B9616BA26A9142B5
:101A20005DD06B4A05210120C2F8003584F82F00F3
:101A3000C2F80015684E664F0FCE0BAD0FC5336868
:101A40002B60D7F8C434C7F8C4349A0728D4580791
:101A500070D502238DF82830002384F83030D4E983
:101A600000310AA8984711B0F0BDD3F81C11D9B1C4
:101A7000C3F81C01D3F81C110491616B049DD3F8C9
:101A8000245101316163002D71D0C3F82401D3F8D2
:101A9000241103910121039884F82F105961A3E7C1
:101AA00001238DF82830D7E7D3F8080100289BD010
:101AB000C3F80811D3F8080102900298D3F8240162
:101AC00000283ED0C3F82411D3F82411019101213C
:101AD000019884F82F10596186E70122DA61237B8F
:101AE0009A1E012A0FD93C4E276A0FCE0BAD0FC5A7
:101AF00033682B6000238DF8283084F830307B0762
:101B0000ADD511B0F0BD616AA2699142EBD1D4E9C3
:101B1000071260696162C2F340120021032BA062C8
:101B200084F82D102A482B4984F82C2031D0FFF757
:101B3000F1FD5AE7D9074CBF032304238DF8283061
:101B40008AE7616BA06A8142BFF44EAF606AD3F846
:101B500018554554616BA06A0131451EA942616365
:101B60001FD0814224D01A4B012119623CE7A06AA0
:101B7000814204D2606A415CC3F81C1534E794F8D2
:101B80002C100029A9D1216A4F0605D401215961E1
:101B90002AE7FFF767FC28E70122DA6184F82D20A5
:101BA0009DE7256A6E060FD40221C3F80012DAE71A
:101BB000236A5D067FF518AF94F82F30022284F86F
:101BC0002D20002B8BD035E78142CCD1F4E700BF2C
:101BD0000030004044010020500100202DE9F04F6A
:101BE0000779DFF828810546C7EB071008EB800668
:101BF00083B096F82EC09B4683000193BCF1000F82
:101C00006BD10C4628683D499146FEF753FE0028EB
:101C10006FD1019BB06048F8039086F83000C6F899
:101C200004B086F82D0086F83100637B86F83830E2
:101C300023681F2B86BF03F01F03314A4FF0A042D9
:101C400003F5E07340F20C6142F8231063681F2B28
:101C500086BF03F01F032A4A4FF0A04203F5E0734A
:101C600040F20C6142F82310D4E900312A68C2F82E
:101C70000835C2F80C15A368C2F824354FEA071AD4
:101C8000B9F1000F1FD02A68237B42F307310029E6
:101C90004FEA123225DB01F1604101F561415B0140
:101CA000DBB281F800332B6843F30732002A4FEA96
:101CB000133308DB134C0121520903F01F0301FA0F
:101CC00003F344F82230AAEB070708EB8708012347
:101CD00088F82E3003B0BDE8F08F082003B0BDE8CF
:101CE000F08F094902F00F025B011144DBB20B7661
:101CF000D9E7112003B0BDE8F08F00BF9D190000A7
:101D00000003005000E100E0FCEC00E04401002092
:101D10000379064A0168C3EB031302EB8303022035
:101D2000052283F82E00C1F80025704744010020E9
:101D30002DE9F84F0479264F9DF828800068C4EB00
:101D4000041607EB8605B8F1000F95F82DE08C46D8
:101D500014BF20210021BEF1020F2CD0DFF874E067
:101D6000C0F808E395F830E00EF0FF09BEF1000F6F
:101D700028D1C4EB0414A40004F10C0A07EB0A0EEA
:101D8000B6004FF0010B296285F830B0391907F819
:101D90000A90CEE90139CEE903298EF801C0C5E9E0
:101DA0000923C0F888C585F82C80FFF75BFBBB5979
:101DB00023B1BDE8F88F0820BDE8F88F85F83030F2
:101DC000BDE8F88FAB68C0F804331120BDE8F88F88
:101DD00044010020864204002DE9F0470479214F98
:101DE0000068C4EB041607EB860595F82DE0BEF1FC
:101DF000010F29D08C461C49C0F8081395F8301003
:101E000001F0FF0839BBC4EB0414A40004F10C0971
:101E100007EB090E4FF0010AB60085F830A0C5F8AF
:101E20002080391907F809A0CEE90138CEE9032846
:101E30008EF801C0C5E90923C0F888C5FFF76AFC20
:101E4000BB5923B1BDE8F0870820BDE8F08785F8CD
:101E50003030BDE8F087AB68C0F804331120BDE82E
:101E6000F08700BF440100208642040010B4814B7B
:101E70001B68082B21D0804AD2F8883043F47003C5
:101E8000C2F88830BFF34F8FBFF36F8F794B1B6859
:101E9000082B00F0AA804FF01023D3F80022002A6C
:101EA000C0F2B680D3F80432002BC0F2B180734B7D
:101EB000734A1A605DF8044B70474FF080414FF051
:101EC00080520020C1F80C016E4BC1F81001C1F81E
:101ED0003805D2F80414C3F82015D2F80814C3F852
:101EE0002415D2F80C14C3F82815D2F81014C3F82E
:101EF0002C15D2F81414C3F83015D2F81814C3F8FE
:101F00003415D2F81C14C3F84015D2F82014C3F8C5
:101F10004415D2F82414C3F84815D2F82814C3F88D
:101F20004C15D2F82C14C3F85015D2F83014C3F85D
:101F30005415D2F83414C3F86015D2F83814C3F825
:101F40006415D2F83C04C3F868054F49D2F8400440
:101F5000C3F86C050968D2F84424C3F87025052934
:101F600037D84A4B5B5C13B1494B4A4A1A604A4B1B
:101F70005B5C63B13F4B49491B68434AFB20C1F896
:101F80001805082B11687FF476AF052921D8444B3A
:101F90005B5C93B14348444B364C02681B68246831
:101FA000394922F00F0203F00F031343082C09688C
:101FB00003607FF460AF05290BD83C4B5B5C43B1F9
:101FC0002C4B3B4A1B684FF40071082B11607FF4C7
:101FD00052AF4FF08043D3F80024D2077FF54BAFC8
:101FE0006FF00102C3F8002445E7274B1B68052B5F
:101FF00008D94FF010224FF08043D2F80822C3F8DE
:10200000582548E72B4AD35C002B3FF444AFF0E758
:10201000294A0123C2F80435D2F80034002BFBD042
:102020004FF010231221244AC3F80012D2F80034D2
:10203000002BFBD04FF0102312211F4AC3F80412CB
:10204000D2F80034002BFBD000231B49C2F8043522
:10205000D1F80034002BFBD0BFF34F8F0649174B4C
:10206000CA6802F4E0621343CB60BFF34F8F00BF36
:10207000FDE700BF3001001000ED00E0140000207B
:102080000090D00300C0004034010010003900006F
:102090008C560040488103000039000000F00040E9
:1020A00000390000E40E0040580200100039000022
:1020B00040960240F838000000E001400400FA05B4
:1020C00030B585B0047885888DF800408468ADF817
:1020D00004508DF80640C568074A084B8DF8075034
:1020E000D0E9040453F8213052F82110CDE902045C
:1020F0006846984705B030BD800100208801002067
:102100002DE9F04FDFF868C1077806460C465448C1
:10211000497B4CF8272040F8273081B0154661B93B
:10212000504A002D3B46214606F1040008BF2A46CE
:1021300001B0BDE8F04FFFF751BD22684A48DFF813
:102140002CB14FF0A04302F5E07240F20C6143F86D
:102150002210626802F5E0724FF0010A43F8221083
:1021600021681F2984BF01F01F0103F5407301227C
:102170008A40C3F8082563681F2B8ABF3B4A4FF08B
:10218000A04203F01F030AFA03F3C2F808352368DC
:102190004FF0A04203F5E07340F20D6142F82310C6
:1021A000636803F5E07340EA0A0842F823104FF42D
:1021B0008070C0474FF0000963681F2B8ABF5A46E2
:1021C0004FF0A04203F01F01D2F8102598BF194626
:1021D000CA40D2073FD423681F2B8ABF5A464FF00C
:1021E000A04203F01F030AFA03F3C2F80C354FF4C0
:1021F0008070C04723681F2B86BF03F01F035A4619
:102200004FF0A0420AFA03F3C2F8083509F10109B8
:102210004FF48070C047B9F1090FCDD163681F2B0F
:102220008ABF12494FF0A04103F01F03012202FAB6
:1022300003F3C1F80C354FF48070C04762681F2A61
:1022400086BF0A4902F01F024FF0A04101239340CC
:10225000C1F8083564E7B9F1000FE0D160E700BFCD
:1022600080010020C1200000103900000003005050
:102270008801002008B50120FEF76AF800F01AF87E
:1022800000F01EF90848094C00F03EFB142544F00C
:1022900001044FF47A40A047013DFAD100F034F830
:1022A00000F098F8FCE700BF18390000003A000081
:1022B000704700BF30B5104D104B8BB004AC00938D
:1022C0000FCD0FC495E8030084E803000C4C0D4AC1
:1022D0004FF480750723694604A8CDE902450195AE
:1022E000FEF75CF910F0FF0001D10BB030BDFEF736
:1022F0005DF80BB030BD00BFB83C0000900100207D
:1023000090020020B122000038B52348234C00F091
:10231000FBFA234800F0F8FA224800F0F5FA2248C8
:1023200000F0F2FA214800F0EFFA214800F0ECFA50
:10233000142544F001044FF47A40A047013DFAD13E
:102340001C4800F0E1FA1C4800F0DEFA1B4800F0DF
:10235000DBFA1B4800F0D8FA1A4800F0D5FA1A4800
:1023600000F0D2FA14254FF47A40A047013DFAD18B
:10237000164800F0C9FA164800F0C6FA144800F0F2
:10238000C3FA134800F0C0FA114800F0BDFABDE8E6
:102390003840044800F0B8BA083A0000D03C0000C9
:1023A000343A0000603A00008C3A0000B83A00006D
:1023B000E43A0000103B00003C3B0000683B00009A
:1023C000943B0000C03B0000EC3B0000183C0000C8
:1023D000443C000030B583B00DF10700FEF75AF918
:1023E00098B99DF80730682B15D0732B19D0632B43
:1023F0001DD0762B24D0722B3DD06F2B2AD0702B82
:102400002ED0652B32D0642B01D003B030BD00F04C
:1024100011F903B030BDFFF777FF9DF80730732B3C
:10242000E5D100F075F89DF80730632BE1D1FDF799
:1024300079FF1D4800F068FA9DF80730762BDAD155
:10244000FDF75AFF194800F05FFA9DF80730722B2C
:10245000D3D110E000F0BAF99DF80730702BD0D13D
:1024600000F05EF99DF80730652BCCD100F080F8C4
:102470009DF80730C7E70E480E4C00F045FA64257A
:1024800044F001044FF47A40A047013DFAD1BFF374
:102490004F8F0949094BCA6802F4E0621343CB60CD
:1024A000BFF34F8F00BFFDE7703C0000843C00008D
:1024B0009C3C0000D03C000000ED00E00400FA0568
:1024C00030B5002385B01D201F21CDE900014FF05C
:1024D000CC7507240C488DF80F301A466946ADF8C4
:1024E0000D3002958DF80C40FFF70AFE20B9074821
:1024F000FFF70EFC05B030BDFDF758FF0348FFF7AE
:1025000007FC05B030BD00BFA83E0000AC3E000097
:10251000F0B51348134D144F83B0002400F0F4F9C4
:10252000264602E001347F2C11D001230DF1070271
:10253000E1B22846FFF750FC0028F3D12146384687
:10254000013400F0E1F97F2C4FF00106EDD10EB11E
:1025500003B0F0BD054800F0D7F903B0F0BD00BFEF
:10256000D83C0000AC3E0000F83C00001C3D0000E0
:102570002DE9F047B6B0FF232748284E8DF80930E3
:1025800000F0C2F9264D274FDFF8A48046F001067F
:102590000024A5FB0423A2B29B09A5FB0201B3EB17
:1025A000911FADF80A2004F1010429D102220DF196
:1025B0000A0103A800F092F901220DF109010DF1C1
:1025C0000E0000F08BF90023009303AA032350218F
:1025D0003846FFF7ADFB82464FF005094FF47A40CD
:1025E000B047B9F10109F9D1BAF1000F0ED1B4F534
:1025F000004FCED10C4800F087F936B0BDE8F08727
:10260000404600F081F94FF0050AE5E7074800F081
:102610007BF936B0BDE8F0878C3D0000A03E00009D
:102620001F85EB51AC3E0000BC3D0000A03D00000A
:10263000583D00002DE9F04F3048314FDFF8DCA065
:1026400089B000F061F94FF0000947F001074FF43D
:102650007A40B8474FF47A40B847012300930DF110
:102660000A02022350215046ADF80A90FFF760FBA2
:10267000044640B100238DF81C30224800F044F994
:1026800009B0BDE8F08F03AA102350215046FFF790
:10269000A3FB8DF81C400028EFD11B481B4E1C4D9E
:1026A000494600F031F90DF10B0B0DF11B044FF011
:1026B0002E081BF8011F284600F026F99BF8002081
:1026C000B25C12F0970F08BF8BF800805C45F0D128
:1026D00005244FF47A40B847013CFAD103A90D48CC
:1026E00000F012F909F101090B4800F00DF9B9F1F8
:1026F000200FACD109B0BDE8F08F00BFDC3D000079
:10270000A03E0000FC3D00002C3E0000B93E000051
:10271000843D0000383E0000883A0000AC3E0000D6
:102720002DE9F041234B244FDFF89C800FCBBAB04A
:1027300003AE86E80F0000257319002402E001347F
:10274000C82C04D013F8012B002AF8D164B305F18A
:102750000F03A7FB03239B09A7FB0512B3EB921FF3
:10276000ADF80A5017D102220DF10A0107A800F0B6
:10277000B5F8102231460DF11E0000F0AFF800232D
:10278000009307AA122350214046FFF7D1FA28B937
:102790002C44A5B2D0E7094800F0B6F8084800F08C
:1027A000B3F83AB0BDE8F081064800F0ADF83AB0B1
:1027B000BDE8F081783E00001F85EB51583D0000D8
:1027C0003C3E00005C3E0000AC3E0000F0B589B02D
:1027D0000123009300241E48ADF80A4002230DF1A6
:1027E0000A025021FFF7A4FA20B11A4800F08CF831
:1027F00009B0F0BD5021164803AA1023FFF7ECFAE8
:1028000001460028F1D11448144E00F07DF80DF176
:102810000B040DF11B052E2714F8011F104800F0C2
:1028200073F82378F35C13F0970F08BF2770A54265
:10283000F2D10C4D052445F001054FF47A40A8472C
:10284000013CFAD103A9084800F05EF809B0F0BDD8
:10285000AC3E0000FC3D00002C3E0000B93E0000F4
:10286000843D0000A03E00008C3E000008B5074BF0
:10287000044613B10021AFF30080054B1868836A4A
:1028800003B19847204601F019F800BF000000008E
:10289000BC3F000070B50D4D0D4C641BA41000260C
:1028A000A64209D10B4D0C4C01F00AF8641BA41090
:1028B0000026A64205D170BD55F8043B9847013665
:1028C000EEE755F8043B98470136F2E77C0000201C
:1028D0007C0000207C000020800000200A449142FF
:1028E00000F1FF3300D1704710B511F8014B03F828
:1028F000014F9142F9D110BD02440346934200D1E9
:10290000704703F8011BF9E70FB40A4B13B51C68B5
:1029100024B1A36913B9204600F066F805AB049A08
:10292000A1680193204600F083F902B0BDE8104091
:1029300004B0704718000020002310B50446C0E919
:102940000033C0E90433836081814366C2818361BF
:10295000194608225C30FFF7CFFF054B6362054B39
:10296000A362054BE362054B2462236310BD00BFE5
:10297000D9310000FB310000333200005732000033
:10298000014900F0AFB800BF3135000070B54A1EF4
:10299000682555430E4605F1740100F0C5F804465C
:1029A00040B10021C0E900160C30A06005F16802BA
:1029B000FFF7A2FF204670BD014800F0B3B800BF8A
:1029C000A6030020014800F0AEB800BFA603002017
:1029D000014800F0A7B800BFA1030020014800F0A3
:1029E000A2B800BFA103002010B50446FFF7F0FF16
:1029F000A3691BB1BDE81040FFF7F0BFC4E9123373
:102A00002365134B134A1B68A262A34204BF012330
:102A1000A361204600F020F86060204600F01CF81A
:102A2000A060204600F018F80022E06004216068F1
:102A3000FFF782FFA06801220921FFF77DFFE06810
:102A400002221221FFF778FF0123A361D2E700BF22
:102A5000BC3F000081290000F8B50746FFF7ACFF36
:102A60001E4B1E68B36913B93046FFF7BDFF4836E9
:102A7000D6E90134013B03D533680BB33668F7E779
:102A8000B4F90C50D5B9164BE36004F158006566F3
:102A900000F047F8FFF796FFC4E90155C4E9045573
:102AA0002560A5610822294604F15C00FFF724FF98
:102AB000C4E90D55C4E912552046F8BD6834D9E77C
:102AC00004213846FFF762FF044630600028D5D164
:102AD000FFF778FF0C233B60EEE700BFBC3F000030
:102AE0000100FFFF2DE9F8430646884600F148043F
:102AF0000027D4E90195B9F1010905D52468002C16
:102B0000F7D13846BDE8F883AB89012B07D9B5F971
:102B10000E30013303D029463046C047074368359D
:102B2000E9E7704770477047F8B5CD1C25F00305FD
:102B300008350C2D38BF0C25002D064601DBA942B7
:102B400003D90C2333600020F8BD00F0F9FD2149C2
:102B50000A6814469CB9204F3B6823B92146304689
:102B600000F02AFB38602946304600F025FB431C64
:102B700023D10C233360304600F0E8FDE3E72368FF
:102B80005B1B17D40B2B03D923601C44256004E086
:102B90006368A2420CBF0B605360304600F0D6FD64
:102BA00004F10B00231D20F00700C21ACCD01B1A21
:102BB000A350C9E722466468CCE7C41C24F0030490
:102BC000A042E3D0211A304600F0F6FA0130DDD100
:102BD000CFE700BF90030020940300209368013BDF
:102BE000002B10B4936008DA9469A34201DB0A2930
:102BF00003D15DF8044B00F033BB1368581C106020
:102C0000197008465DF8044B7047F8B506460F4644
:102C10001446D518AC4201D1002007E014F8011B7E
:102C20003A463046FFF7DAFF431CF3D1F8BD000007
:102C30002DE9F04F0D469DB014469846064618B152
:102C400083690BB9FFF7D0FE894B9D421BD1756894
:102C50006B6ED90705D4AB899A0502D4A86DFFF72E
:102C600061FFAB891B0701D52B69EBB929463046BB
:102C700000F05AFBC0B16B6EDC070ED54FF0FF3091
:102C80001DB0BDE8F08F7B4B9D4201D1B568DFE7F9
:102C9000794B9D4208BFF568DAE7AB899805EDD41A
:102CA000A86DFFF740FFE9E70023099320238DF883
:102CB0002930CDF80C803023DFF8C0818DF82A3020
:102CC0004FF0010923469A4613F8012B0AB1252A31
:102CD000F9D1BAEB040B0BD05B46224629463046AD
:102CE000FFF793FF013000F0AA80099A5A44099235
:102CF0009AF80030002B00F0A28000234FF0FF3242
:102D0000CDE905230AF1010A049307938DF85330A6
:102D10001A935446052214F8011B584800F0C0FCD1
:102D2000049AD8B9D10644BF20238DF85330130735
:102D300044BF2B238DF853309AF800302A2B15D03E
:102D4000079A544600204FF00A0C214611F8013B27
:102D5000303B092B4ED9B0B1079214E0A0EB080329
:102D600009FA03F313430493A246D2E7039B191D08
:102D70001B680391002BBBBF5B4242F0020207932A
:102D80000793B8BF049223782E2B0CD163782A2B9B
:102D900035D1039B1A1D1B680392002BB8BF4FF05F
:102DA000FF3302340593DFF8E4A021780322504674
:102DB00000F076FC40B14023A0EB0A0003FA00F0DB
:102DC000049B03430134049314F8011B2C488DF831
:102DD0002810062200F064FC00283FD0294B1BBBC2
:102DE000039B073323F0070308330393099B3B44FA
:102DF000099367E70CFB02320C460120A5E700238C
:102E00000134059319464FF00A0C204610F8012BA7
:102E1000303A092A03D9002BC5D00591C3E70CFB32
:102E2000012104460123F0E703AB00932A46164B29
:102E300004A93046AFF300800746781CD6D16B6EEC
:102E4000D90705D4AB899A0502D4A86DFFF76BFEAC
:102E5000AB895B063FF512AF099811E703AB00930E
:102E60002A46094B04A9304600F080F8E4E700BF89
:102E7000E03F000000400000C03F00002040000094
:102E80002A400000000000000B2C0000264000003B
:102E90002DE9F047164699468A680B69DDF82080CF
:102EA0009342B8BF1346336091F8432007460C465F
:102EB0000AB1013333602368990642BF3368023395
:102EC0003360256815F0060506D104F1190AE36898
:102ED00032689B1AAB4226DC94F84320131E22680A
:102EE00018BF012392062BD404F143024946384609
:102EF000C04701301ED02368E568326803F006033E
:102F0000042B08BFAD1AA36822690CBF25EAE5753A
:102F100000259342C4BF9B1AED1800261A34B5420F
:102F20001AD1002008E00123524649463846C047DE
:102F3000013003D14FF0FF30BDE8F0870135C6E71F
:102F4000E1185A1C302081F84300224494F84510BF
:102F500082F843100233C7E7012322464946384628
:102F6000C0470130E6D00136D9E700002DE9FF4720
:102F70000C469146277E0C99782F80469A4604F19C
:102F8000430207D8622F0AD8002F00F0D880582FAC
:102F900000F0A38004F1420684F842703AE0A7F101
:102FA0006303152BF6D801A050F823F0053000007C
:102FB00019300000952F0000952F0000952F00007C
:102FC000952F000019300000952F0000952F00006C
:102FD000952F0000952F000025310000493000009A
:102FE00007310000952F0000952F000047310000A9
:102FF000952F000049300000952F0000952F00000C
:103000000F3100000B681A1D1B680A6004F14206AC
:1030100084F842300123A3E0256808682E0600F1F9
:1030200004030AD505680B60002D03DA2D236D42D9
:1030300084F843305E480A2319E015F0400F056814
:103040000B6018BF2DB2EFE70B682568181D0860EC
:10305000280601D51D6802E06906FBD51D88544885
:103060006F2F0CBF08230A23002184F843106668E1
:10307000A660002EA2BF216821F0040121600DB9D5
:10308000002E4DD01646B5FBF3F103FB1157C75D7B
:1030900006F8017D2F46BB420D46F4D9082B0BD113
:1030A0002368DF0708D5236961689942DEBF3023B2
:1030B00006F8013C06F1FF36921B2261CDF800A014
:1030C0004B4603AA21464046FFF7E2FE01304CD1B1
:1030D0004FF0FF3004B0BDE8F087354884F8457004
:1030E00023680E681F0656F8045B0E6014D5D907D6
:1030F00044BF43F0200323601DB9236823F020035D
:1031000023601023B0E7236843F020032360782373
:10311000284884F84530E3E75E0648BFADB2E6E7ED
:103120001646BBE70B68266860691D1D0D603506F5
:103130001B6801D5186002E07106FBD518800023DA
:1031400023611646BAE70B681A1D0A601E6862689A
:103150000021304600F0A4FA08B1801B606063686B
:103160002361002384F84330A8E7236932464946A7
:103170004046D0470130ABD023689B0713D4E068AA
:10318000039B9842B8BF1846A4E70123324649463C
:103190004046D04701309BD00135E36803995B1A64
:1031A000AB42F2DCEBE7002504F11906F5E700BFBE
:1031B000314000004240000038B5064D002304466F
:1031C00008462B6000F06CFB431C02D12B6803B156
:1031D000236038BDA803002010B50C46B1F90E10CD
:1031E00000F00AFB0028ABBF636DA3891B1823F412
:1031F0008053ACBF6365A38110BD2DE9F0411F462C
:103200008B89DB0505460C46164605D5B1F90E102F
:103210000223002200F0C8F9A389B4F90E1023F4A8
:103220008053A38132463B462846BDE8F04100F07A
:1032300069B810B50C46B1F90E1000F0B5F9431C91
:10324000A38915BF606523F4805343F48053A381A1
:1032500018BFA38110BDB1F90E1000F0D3B8000063
:10326000F8B50E461446054618B183690BB9FFF749
:10327000BBFB214B9C422BD16C68A369A360A38943
:103280001A072FD523696BB323692068C01A6369B5
:10329000F6B28342374604DC2146284600F048F95E
:1032A00030BBA368013BA36023685A1C22601E70D8
:1032B00063690130834204D0A389DB0706D50A2E57
:1032C00004D12146284600F033F988B93846F8BDC4
:1032D0000A4B9C4201D1AC68CFE7094B9C4208BF26
:1032E000EC68CAE72146284600F01EF80028CBD03B
:1032F0004FF0FF37EAE700BFE03F0000004000006A
:10330000C03F000038B5074D04460846114600226C
:103310002A601A46FDF738FA431C02D12B6803B124
:10332000236038BDA8030020324B70B51D680646E7
:103330000C4625B1AB6913B92846FFF755FB2E4B58
:103340009C420FD16C68A389B4F90C2019072CD4C6
:10335000DD0611D40923336042F04003A3814FF00E
:10336000FF303EE0254B9C4201D1AC68EBE7244B9B
:103370009C4208BFEC68E6E7580712D5616B41B183
:1033800004F14403994202D0304600F0E5F90023ED
:103390006363A38923F02403A3810023636023696B
:1033A0002360A38943F00803A38123694BB9A38950
:1033B00003F42073B3F5007F03D02146304600F0BC
:1033C00029F9A089B4F90C2010F001030AD00023D8
:1033D000A36063695B42A361236943B910F0800075
:1033E000BAD170BD810758BF6369A360F4E70020BC
:1033F000F7E700BF18000020E03F00000040000099
:10340000C03F000038B5064D0023044608462B6037
:1034100000F026FA431C02D12B6803B1236038BDAB
:10342000A80300208A892DE9F041054610070C46C3
:1034300058D44B68002B05DC0B6C002B02DC002001
:10344000BDE8F081E66A002EF9D0002312F4805224
:103450002F682B6032D0606DA3895A0705D5636849
:10346000C01A636B0BB1236CC01A00230246E66AD4
:10347000216A2846B047431CA38906D129681D2923
:103480002CD82A4ACA40D60728D500226260D9041F
:103490002269226004D5421C01D12B6803B9606502
:1034A000616B2F600029CAD004F14403994202D015
:1034B000284600F051F900206063C1E7216A01232A
:1034C0002846B047411CC7D12B68002BC4D01D2B08
:1034D00001D0162B01D12F60B1E7A38943F040033F
:1034E000A381ADE70F69002FA9D093070E6808BF2D
:1034F0004B690F6018BF0023A6EB07088B60B8F17B
:10350000000F9CDD216AA66A43463A462846B0472A
:10351000002806DCA38943F04003A3814FF0FF306D
:103520008EE70744A8EB0008E9E700BF0100402050
:1035300038B50B6905460C4613B90025284638BD39
:1035400018B183690BB9FFF74FFA144B9C421BD19A
:103550006C68B4F90C30002BEFD0626ED00704D445
:10356000990502D4A06DFFF7DDFA28462146FFF742
:1035700059FF636EDA070546E0D4A3899B05DDD4C5
:10358000A06DFFF7D0FAD9E7054B9C4201D1AC689A
:10359000DFE7044B9C4208BFEC68DAE7E03F00003D
:1035A00000400000C03F000038B5074D0446084603
:1035B000114600222A601A4600F06AF9431C02D123
:1035C0002B6803B1236038BDA803002070B50E46F8
:1035D000B1F90E10002996B014461D4607DA0023F3
:1035E0002B60B3891A0610D44FF480630EE06A464C
:1035F00000F014F90028F2DB019A02F47042A2F5FF
:1036000000535A425A412A60EEE7402300202360CB
:1036100016B070BD8B8973B59D0706460C4607D55D
:1036200004F14703236023610123636102B070BD8D
:1036300001AB6A46FFF7CAFF009905463046FFF71F
:1036400073FA48B9B4F90C309A05EFD423F00303A8
:1036500043F00203A381E3E70D4BB362A38920602B
:1036600043F08003A381009B6361019B20615BB1F8
:10367000B4F90E10304600F0E3F828B1A38923F026
:10368000030343F00103A381A0890543A581CDE78E
:103690008129000000000000000000000000000080
:1036A00001F0FF01102A2BDB10F0070F08D010F8F3
:1036B000013B013A8B422DD010F0070F42B3F6D1F7
:1036C000F0B441EA012141EA014122F007047FF010
:1036D00000070023F0E80256083C85EA010586EA67
:1036E000010685FA47F5A3FA87F586FA47F6A5FAA3
:1036F00087F68EB9EED1F0BC01F0FF0102F00702AF
:1037000032B110F8013B013A83EA010313B1F8D159
:103710000020704701387047002D06BF354603383A
:10372000073815F0010F07D1013015F4807F02BF73
:10373000013015F4C03F0130F0BC0138704700BFC4
:103740000148FFF7EFB900BFA20300200148FFF7CF
:10375000EAB900BFA203002037B5002948D051F8CC
:10376000043C0190002BA1F10404B8BFE418FFF75A
:10377000E7FF204A01981368154633B96360146067
:1037800003B0BDE83040FFF7E1BFA3420BD9216889
:103790006218934204BF1A685B68636004BF5218E2
:1037A00022602C60ECE71A465B680BB1A342FAD9A1
:1037B00011685518A5420BD1246821445418A3421E
:1037C0001160DDD11C685B68536021441160D7E74C
:1037D00002D90C230360D3E7256861198B4204BF2B
:1037E00019685B68636004BF491921605460C7E7CA
:1037F00003B030BD9003002038B5074D044608469D
:10380000114600222A601A46FCF7CCFF431C02D165
:103810002B6803B1236038BDA803002038B5074DDD
:1038200000230446084611462B6000F021F8431C93
:1038300002D12B6803B1236038BD00BFA80300206C
:1038400038B5064D0023044608462B6000F018F8F2
:10385000431C02D12B6803B1236038BDA8030020AC
:10386000024B58221A604FF0FF307047A803002027
:10387000024B58221A604FF0FF307047A803002017
:10388000024B58221A600020704700BFA803002096
:10389000024B58221A604FF0FF307047A8030020F7
:1038A000044A05491368002B08BF0B4618441060F2
:1038B0001846704798030020B0030020FEE700BFC1
:1038C000F8B500BFF8BC08BC9E467047F8B500BF0D
:1038D000F8BC08BC9E467047FFFFFFFFFFFFFFFFDD
:1038E000FFFFFFFFFFFFFFFF0000000000000000E0
:1038F0000000D601060100000000000001010000E8
:1039000001000000000000000000000000000000B6
:103910000338FDD8704700000A2A2A2A2A2A2A2AB0
:103920002A2A2A2A2A2A2A2A2A2A2A2A2A2A2A2AF7
:103930002A2A2A2A2A2A2A2A2A2A2A2A2A2A2A2AE7
:103940002A2A2A2A2A2A2A2A2A2A2A2A2A2A2A2AD7
:103950002A2A2A2A2A2A2A2A2A2A2A2A2A2A2A2AC7
:103960000D0A2A2A2A2A2A2A2A2A2A2A2A2A2A2AF4
:103970002A2A2A2A2A2A2A2A2A2A2A204150504C2C
:1039800049434154494F4E205354415254454420D9
:103990002A2A2A2A2A2A2A2A2A2A2A2A2A2A2A2A87
:1039A0002A2A2A2A2A2A2A2A2A0D0A2A2A2A2A2AB4
:1039B0002A2A2A2A2A2A2A2A2A2A2A2A2A2A2A2A67
:1039C0002A2A2A2A2A2A2A2A2A2A2A2A2A2A2A2A57
:1039D0002A2A2A2A2A2A2A2A2A2A2A2A2A2A2A2A47
:1039E0002A2A2A2A2A2A2A2A2A2A2A2A2A2A2A2A37
:1039F0002A2A0D0A0000000000000000000000005C
:103A00000338FDD87047000020200A2D2D2D2D2DC4
:103A10002D2D2D2D2D2D2D2D2D2D2D2D2D2D2D2DD6
:103A20002D2D2D2D2D2D2D2D2D2D2D2D2D2D2D2DC6
:103A30002D0D0A0020207C20202020202020202066
:103A40002020202020202048454C502020202020CD
:103A500020202020202020202020207C0D0A000073
:103A600020202D2D2D2D2D2D2D2D2D2D2D2D2D2DA0
:103A70002D2D2D2D2D2D2D2D2D2D2D2D2D2D2D2D76
:103A80002D2D2D2D2D2D2D2D0D0A000020207C20DB
:103A90006820202D2020646973706C61792074681F
:103AA00069732068656C70206D657373616765204C
:103AB0002020207C0D0A000020207C207320202D57
:103AC00020207363616E20666F722054574920284E
:103AD0004932432920616464726573736573207C85
:103AE0000D0A000020207C206320202D2020746FF0
:103AF00067676C65206F6E626F617264204C45442D
:103B000073206F6E202020202020207C0D0A0000D2
:103B100020207C207620202D2020746F67676C6524
:103B2000206F6E626F617264204C454473206F6633
:103B3000662020202020207C0D0A000020207C20F0
:103B40007220202D20207265626F6F74207468656A
:103B50002073797374656D20202020202020202080
:103B60002020207C0D0A000020207C206220202DB7
:103B70002020636865636B20424C45204D41432003
:103B80006164647265737320202020202020207CD3
:103B90000D0A000020207C206F20202D202072653F
:103BA0006164202020202020202028454550524FAD
:103BB0004D292020202020202020207C0D0A0000DC
:103BC00020207C207020202D2020777269746520B1
:103BD00020202020202028454550524F4D292020CC
:103BE000202020202020207C0D0A000020207C2086
:103BF0006420202D20206D656D6F72792064756DB5
:103C0000702028454550524F4D292020202020204B
:103C10002020207C0D0A000020207C206520202D03
:103C20002020657261736520616C6C20202028451E
:103C30004550524F4D292020202020202020207C3C
:103C40000D0A000020207C207820202D2020746286
:103C50006420202020202020202020202020202020
:103C600020202020202020202020207C0D0A000061
:103C70000A546F67676C6564204C454473206F6E0F
:103C80002E0D0A000A546F67676C6564204C45442A
:103C900073206F66662E0D0A000000000A537973C8
:103CA00074656D2077696C6C206E6F772072656229
:103CB0006F6F742E0D0A00001A0000001B00000038
:103CC000FFFFFFFFFFFFFFFF0000000000E0D70144
:103CD0000338FDD8704700000A5363616E6E696E49
:103CE0006720666F72205457492064657669636562
:103CF000732E2E2E0D0A00005457492064657669F4
:103D0000636520666F756E642061742061646472FF
:103D100065737320307825782E0D0A004E6F20547D
:103D200057492064657669636520666F756E642EF9
:103D30000D0A00004552524F523A20577269746979
:103D40006E6720746F6F206D616E79206279746583
:103D5000732E0D0A000000004552524F523A205770
:103D600072697474656E2064617461206D7573741A
:103D7000206265206F6E2073616D652070616765DC
:103D80002E0D0A00252E3278200000004572617346
:103D9000696E6720454550524F4D2E2E2E0D0A005C
:103DA00054574920436F6D6D756E69636174696F17
:103DB0006E204572726F720D0A0000004545505228
:103DC0004F4D207375636365737366756C6C7920F2
:103DD0006572617365642E0D0A0000000A090920EE
:103DE0002020204D454D4F52592044554D502028FC
:103DF000454550524F4D290D0A0000004572726F23
:103E0000723A20454550524F4D207472616E736D69
:103E1000697373696F6E206572726F722064657466
:103E200065637465642E0D0A000000003078252E4D
:103E300032583A2000000000257300004552524FCE
:103E4000523A20436F6D6D756E69636174696F6E70
:103E5000206572726F722E0D0A00000045455052A7
:103E60004F4D207772697465207375636365737352
:103E700066756C2E0D0A00006368726973746F704A
:103E800068657268656E72790000000025730D0A1E
:103E90000000000000000000000000000000000022
:103EA0000338FDD8704700000000000000300040DB
:103EB0000000000000000000002020202020202022
:103EC00020202828282828202020202020202020CA
:103ED00020202020202020202088101010101010DA
:103EE0001010101010101010100404040404040426
:103EF00004040410101010101010414141414141C0
:103F000001010101010101010101010101010101A1
:103F100001010101101010101010424242424242B1
:103F20000202020202020202020202020202020271
:103F30000202020210101010200000000000000019
:103F40000000000000000000000000000000000071
:103F50000000000000000000000000000000000061
:103F60000000000000000000000000000000000051
:103F70000000000000000000000000000000000041
:103F80000000000000000000000000000000000031
:103F90000000000000000000000000000000000021
:103FA0000000000000000000000000000000000011
:103FB0000000000000000000000000001C000020C5
:103FC00000000000000000000000000000000000F1
:103FD00000000000000000000000000000000000E1
:103FE00000000000000000000000000000000000D1
:103FF00000000000000000000000000000000000C1
:1040000000000000000000000000000000000000B0
:1040100000000000000000000000000000000000A0
:10402000232D302B2000686C4C00656667454647A1
:104030000030313233343536373839414243444524
:104040004600303132333435363738396162636493
:0840500065660000000000009D
:08405800E8C1FF7F0100000038
:104060000000000000200040000000000020004090
:10407000000000000090D0031C00002000000000A1
:10408000E03F000000400000C03F000000000000D2
:104090000000000000000000000000000000000020
:1040A0000000000000000000000000000000000010
:1040B0000000000000000000000000000000000000
:1040C00000000000000000000000000000000000F0
:1040D00000000000000000000000000025020000B9
:0440E00001020000D9
:04000003000002BD3A
:00000001FF
